:03000000020006F5
:20005F007508BD750903750A80750B09750C00750D9D750E03750F8075100875110075127A
:20007F006E751303751480751508751600751796751803751980751A07751B00751C7E75D8
:20009F001D03751E80751F087520007521B67522037523807524077525007526B6752703B5
:2000BF00752880752907752A00752B7E752C03752D80752E08752F0075303875310475325F
:2000DF0080753303753400E4F535F536F537F538753909F53AF53BF53C753D64F53EF53FD7
:0500FF00F540020003C2
:03000300020104F3
:2001040053D9BF1201431201D475A000C297E4F537F538754108F542754340853982853A1C
:200124008312029A85823F858340C3E53F942FE540648094805006753F2F75400080FEAF1A
:20014400A775A70F75E2408FA722E537C39535F582E5389536F583754508754600754740E1
:20016400853F41854042853943853A441201DAAE82EEF4F5A0C2A7D2A7C3E5379430E53835
:2001840064809480500A0537E4B5370905388005E4F537F538E53DB53B0AE53EB53C05E4DC
:2001A400F53BF53C0535E4B535020536E53FB5350AE540B53605E4F535F536758B00758D2D
:1601C400C0053BE4B53B02053C758AEE758CFF221202FD02030DDC
:20035E008E12111111128E008F494949494936001C224141414122007F41414141221C00B5
:20037E007F49494949494100FF909090909080007884021212129C007F080808087F0041B4
:20039E0041417F4141410020408080413F010100FF101028448281007F404040404000FF4D
:2003BE00020408080402FF00FF020408102040FF003C4281818181423C00FF09090909095C
:2003DE0006003C42818181A142BC00FF090919294986004689898989897200010101FF01CF
:2003FE00010101003F4080808080403F00030C30C0C0300C0300FF201008081020FF0081F1
:1D041E004224181824428100010204F8080402010081C1A1918985838100000000B0
:2001DA00AE82E583FF30E70CEE2541F548EF3542F54980048E488F49E4F54AF54B7A007B8C
:2001FA0000C3E54A9543E54B64808544F063F08095F04003020296EA2545F54CEB3546F529
:20021A004D85474E7403254CF8E4354DF9AF4E888289838FF012033EFEA312033EFFC3E59E
:20023A00489EE54964808FF063F08095F05030854C82854D83854EF012033EF8A312033EA9
:20025A00F9A312033EFDE54828F8E54939F9888289838DF012033EF87D0088828D8322E56F
:20027A0048C39EF548E5499FF54974052AFAE43BFB054AE4B54A02054B0201FB9000002288
:20029A00858244858345E4F546F5477A007B0078007900C3EA9544EB64808545F063F08089
:2002BA0095F05038E82541FEE93542FDAF4374032EFEE43DFD8E828D838FF012033EFEA328
:2002DA0012033EFDEE2546F546ED3547F547740528F8E439F90ABA00BA0B80B7854682853A
:0302FA0047832215
:1402FD00758850758911758E02758AFF758CF62275A88A22AC
:2003110053D9BF75981053890F438920538EF4758D96758B96D28ED29922AF8210990280A1
:0D033100FB8F992210980280FB8599822293
:06003500E478FFF6D8FD9F
:200013007900E94400601B7A0090043B780175AA00E493F2A308B8000205AAD9F4DAF27540
:02003300AAFF22
:20003B007800E84400600A790175AA00E4F309D8FC7800E84400600C7900900001E4F0A3B9
:04005B00D8FCD9FAFA
:0D00060075814E12035AE58260030200036B
:1C033E0020F71430F6148883A88220F507E6A88375830022E280F7E49322E022CE
:04035A007582002286
:00000001FF
