:03000000020006F5
:1E005F00E4F508F509F50AF50B750C09F50DF50EF50F751064F511F512F5130200030F
:0300030002007D7B
:20007D0053D9BF1200BD12014E75A000C297E4F50AF50B7514B5751503751680850C828589
:20009D000D83120214858212858313C3E512942FE51364809480500675122F75130080FED8
:2000BD00AFA775A70F75E2408FA722E50AC39508F582E50B9509F5837518B5751903751A85
:2000DD0080851214851315850C16850D17120154AE82EEF4F5A0C2A7D2A7C3E50A9430E590
:2000FD000B64809480500A050AE4B50A09050B8005E4F50AF50BE510B50E0AE511B50F05D2
:20011D00E4F50EF50F0508E4B508020509E512B5080AE513B50905E4F508F509758B00754C
:17013D008DC0050EE4B50E02050F758AEE758CFF2212027702028769
:2002D8008E12111111128E008F494949494936001C224141414122007F41414141221C003C
:2002F8007F49494949494100FF909090909080007884021212129C007F080808087F00413B
:2003180041417F4141410020408080413F010100FF101028448281007F404040404000FFD3
:20033800020408080402FF00FF020408102040FF003C4281818181423C00FF0909090909E2
:2003580006003C42818181A142BC00FF090919294986004689898989897200010101FF0155
:20037800010101003F4080808080403F00030C30C0C0300C0300FF201008081020FF008177
:200398004224181824428100010204F8080402010081C1A19189858381000000003703807A
:2003B80009001703800800E8028008001003800700F8028008003003800700300380070078
:0A03D800F802800800B20380030061
:20015400AE82E583FF30E70CEE2514F51BEF3515F51C80048E1B8F1CE4F51DF51E7A007B7A
:2001740000C3E51D9516E51E64808517F063F08095F04003020210EA2518F51FEB3519F570
:2001940020851A217403251FF8E43520F9AF21888289838FF01202B8FEA31202B8FFC3E541
:2001B4001B9EE51C64808FF063F08095F05030851F828520838521F01202B8F8A31202B81F
:2001D400F9A31202B8FDE51B28F8E51C39F9888289838DF01202B8F87D0088828D8322E55E
:2001F4001BC39EF51BE51C9FF51C74052AFAE43BFB051DE4B51D02051E02017590000022D0
:20021400858217858318E4F519F51A7A007B0078007900C3EA9517EB64808518F063F0801D
:2002340095F05038E82514FEE93515FDAF1674032EFEE43DFD8E828D838FF01202B8FEA3BC
:200254001202B8FDEE2519F519ED351AF51A740528F8E439F90ABA00BA0B80B78519828528
:030274001A8322C8
:14027700758850758911758E02758AFF758CF62275A88A2232
:20028B0053D9BF75981053890F438920538EF4758D96758B96D28ED29922AF821099028028
:0D02AB00FB8F992210980280FB859982221A
:06003500E478FFF6D8FD9F
:200013007900E94400601B7A009003E2780175AA00E493F2A308B8000205AAD9F4DAF2759A
:02003300AAFF22
:20003B007800E84400600A790175AA00E4F309D8FC7800E84400600C7900900001E4F0A3B9
:04005B00D8FCD9FAFA
:0D0006007581211202D4E58260030200031F
:1C02B80020F71430F6148883A88220F507E6A88375830022E280F7E49322E02255
:0402D400758200220D
:00000001FF
